:1000000049C0000064C0000062C0000060C0000081
:100010005EC000005CC000005AC0000058C0000074
:1000200056C0000054C0000052C0000050C0000084
:100030004EC000004CC000004AC0000048C0000094
:1000400046C000004FC2000051C0000040C0000088
:100050003EC000003CC000003AC0000038C00000B4
:1000600036C0000034C0000032C0000030C00000C4
:100070002EC000002CC000002AC0000028C00000D4
:1000800026C0000024C0000022C0000020C00000E4
:100090001EC0000011241FBECFEFD0E1DEBFCDBFD8
:1000A00022E0A6E0B1E001C01D92AD3AB207E1F74F
:1000B00011E0A0E0B1E0E6EAFCE000E00BBF02C026
:1000C00007900D92A630B107D9F76BD2EAC598CF49
:1000D000ECE7F0E0808180648083EAE7F0E08081F3
:1000E0008460808380818068808308951F920F924E
:1000F0000FB60F9211240BB60F922F933F934F938D
:100100005F936F938F939F93AF93BF93EF93FF93FF
:10011000CF93DF931F92CDB7DEB78091E00080FFD1
:1001200047C09091DE0090FF43C01092ED00EEEECC
:10013000F0E08081898380818F7B808380910B01B7
:1001400090910A01981789F18F702BE0829FC0016E
:100150001124FC01E454FE4F20812093F000208103
:100160002093F20021812093F3002381AAEFB0E0D5
:100170002C9324812C9325812C9326812C932781E9
:100180002C9320852C9321852C9322852C93FC0184
:10019000E254FE4F80818F7080648093EF008091E5
:1001A0000B018F5F80930B017DC0109209017AC013
:1001B00081FF78C08091DE0081FF74C080E1809370
:1001C000ED0080910701282F30E090910801291B54
:1001D00031092F773327203131050CF058C0E82F33
:1001E000EF709091EF002E2F30E04BE0E49FF00194
:1001F0001124E45FFE4F9F704281407F942B9283D5
:100200009091F2004091F0004770907E942B908383
:100210009091F3009183AAEFB0E09C9193839C911D
:1002200094839C9195839C9196839C9197839C91B8
:1002300090879C9191879C9192878F5F8093070113
:1002400040814295469547705181652F660F660F34
:10025000660F862F842B952F929596959770892BF4
:10026000B1F48BE0829FF001839FF00D1124E45FD5
:10027000FE4F8381833059F498E088E10FB6F894FB
:10028000A895809360000FBE90936000FFCFEEEEC4
:10029000F0E080818983898180818F7D808380E8FF
:1002A0008093EF000F90DF91CF91FF91EF91BF917D
:1002B000AF919F918F916F915F914F913F912F914E
:1002C0000F900BBE0F900FBE0F901F901895CF93FD
:1002D000DF93E8EDF0E021E020831092E2002CE0D3
:1002E0002093E30027E32093E4001092E7001092AC
:1002F000E6001092E9001092E8001092EC001092D3
:10030000E500CDEED0E01882AEEEB0E01C9220E128
:1003100028831C921092F400282F2295220F207E11
:100320002093F6009695879596958795969587954F
:100330008093F7001092F000862F8295880F807EC0
:100340008093F20076956795769567957695679593
:100350006093F30080E88093EF0083E08093DC00FB
:100360008093DE0080EB8093DB0082E0808310923C
:100370000601DF91CF910895CF93DF93FC01ABEDA0
:10038000B0E08C918F778C9380910901811127C007
:100390001092ED0080818295880F807E8093F2001C
:1003A0008081918196958795969587959695879565
:1003B0008093F300DF0113969F01255F3F4FCAEF43
:1003C000D0E09D919883A217B307D9F781E080937D
:1003D0000901828180648093EF0081E03CC020911C
:1003E0000A01822F90E030910B01831B91098F77D6
:1003F0009927409779F1A22FAF708BE0A89FD00189
:100400001124ED01C454DE4F8081382F3295330F13
:10041000307E98819F71932B988391819295990F4B
:10042000907E869586958695892B89838281982FE3
:100430009F708A81807F892B8A83A154BE4F88E078
:10044000339601900D928A95E1F72F5F20930A0170
:1004500081E001C080E0EBEDF0E090819068908356
:10046000DF91CF91089595B1892B85B9089584B115
:10047000806E84B980EEF7CF089595B1809598236A
:1004800095B9089595B1892785B9089514BC81E07F
:1004900080936E0084B5846084BD089590E0FC0173
:1004A000EE0FFF1FEE0FFF1FE459FD4F1082118268
:1004B00012821382FC01E457FD4F21E0208308954E
:1004C00024E0829FC0011124FC01E459FD4F6081AA
:1004D00071818281938128EE33E040E050E027D2A1
:1004E000C90108951F920F920FB60F9211240BB6F7
:1004F0000F922F933F934F935F936F937F938F93BD
:10050000AF93BF93EF93FF93ACE8B2E0ECE6F2E079
:100510002CE832E08D91882359F04081518162812D
:100520007381505E6F4F7F4F40835183628373832B
:100530003496E217F30771F7FF91EF91BF91AF91F6
:100540008F917F916F915F914F913F912F910F907C
:100550000BBE0F900FBE0F901F901895E0ECF0E0CF
:10056000908195FFFDCF8093C60081E090E00895D3
:1005700081E090E09093C5008093C40086E0809372
:10058000C200E1ECF0E080818869808360E070E087
:100590008EEA92E0EEC108958AB1897F8AB96D989A
:1005A0000895F894F9DFE4DF71DF60E070E080E047
:1005B00090E08DDE8DDD5BDF789481E06FDF82E09F
:1005C0006DDFE8E9F2E080E292E09183808386E0EB
:1005D0008283F12CB12CE12C212C312C00E010E095
:1005E000C0E0D0E06F01812C912CA12C0F2EF0E601
:1005F0004F2EFAEE5F2E612C712CF02D80E442DF3D
:1006000081E05EDF8436910580F180E83BDFBE014A
:1006100080E090E09BD020E030E046E95FE3FCD052
:1006200069D0F60174836383B80180E090E08ED0D6
:1006300020E030E046E95FE3EFD05CD0F60176835E
:10064000658382E03DDF8938934110F0212C312C05
:10065000822D932DF60190878783C6018DDE81E080
:100660001DDF082D192DC82DD12F659B06C0E11067
:1006700004C02196EE24E39402C0659BEA2C4A9BB9
:1006800007C0B11005C00F5F1F4FBB24B39402C059
:100690004A9BBA2C499B22C0F11029C080E2E3DEBC
:1006A00082E00EDFA0E0B0E0809394029093950288
:1006B000A0939602B093970282E0F0DE209194021C
:1006C000309195024091960250919702C301B20178
:1006D0002ED1222E332EFF24F39490CF49998ECF22
:1006E000FF2009F48BCF80E2C8DEFA2C87CF499B2C
:1006F000FACF84CF70D088F09F5790F0B92F992708
:10070000B751A0F0D1F0660F771F881F991F1AF01C
:10071000BA95C9F712C0B13081F077D0B1E0089531
:1007200074C0672F782F8827B85F39F0B93FCCF3B2
:10073000869577956795B395D9F73EF49095809512
:10074000709561957F4F8F4F9F4F0895E89409C032
:1007500097FB3EF490958095709561957F4F8F4FF4
:100760009F4F9923A9F0F92F96E9BB279395F6950A
:10077000879577956795B795F111F8CFFAF4BB0F88
:1007800011F460FF1BC06F5F7F4F8F4F9F4F16C0EC
:10079000882311F096E911C0772321F09EE8872F76
:1007A000762F05C0662371F096E8862F70E060E032
:1007B0002AF09A95660F771F881FDAF7880F9695AB
:1007C000879597F9089557FD9058440F551F59F094
:1007D0005F3F71F04795880F97FB991F61F09F3F2E
:1007E00079F087950895121613061406551FF2CF57
:1007F0004695F1DF08C0161617061806991FF1CFA7
:1008000086957105610508940895E894BB276627CD
:100810007727CB0197F908950BD078C069D028F0DD
:100820006ED018F0952309F05AC05FC01124EECFA6
:10083000CADFA0F3959FD1F3950F50E0551F629F3B
:10084000F001729FBB27F00DB11D639FAA27F00D29
:10085000B11DAA1F649F6627B00DA11D661F829F50
:100860002227B00DA11D621F739FB00DA11D621F35
:10087000839FA00D611D221F749F3327A00D611D52
:10088000231F849F600D211D822F762F6A2F112434
:100890009F5750408AF0E1F088234AF0EE0FFF1F87
:1008A000BB1F661F771F881F91505040A9F79E3FBE
:1008B000510570F014C0AACF5F3FECF3983EDCF313
:1008C000869577956795B795F795E7959F5FC1F7FB
:1008D000FE2B880F911D9695879597F9089597F9A6
:1008E0009F6780E870E060E008959FEF80EC0895D6
:1008F00000240A94161617061806090608950024FF
:100900000A9412161306140605060895092E039478
:10091000000C11F4882352F0BB0F40F4BF2B11F4EC
:1009200060FF04C06F5F7F4F8F4F9F4F0895A1E21C
:100930001A2EAA1BBB1BFD010DC0AA1FBB1FEE1F59
:10094000FF1FA217B307E407F50720F0A21BB30BA4
:10095000E40BF50B661F771F881F991F1A9469F720
:1009600060957095809590959B01AC01BD01CF017C
:1009700008950F931F93CF93DF93009731F4611580
:10098000710519F480E090E039C08B01EC016EE054
:1009900070E081E090E037D0FC01892B99F380E88A
:1009A00083830115110571F01387028781E8838322
:1009B0008091A3029091A402892B21F4F093A402C8
:1009C000E093A3022097C9F0D187C087838182601A
:1009D00083838091A5029091A602892B71F4F093F4
:1009E000A602E093A5028091A7029091A802892B0C
:1009F00021F4F093A802E093A702CF01DF91CF91F9
:100A00001F910F9108950F931F93CF93DF93869FAC
:100A10008001879F100D969F100D1124C8010DD0E5
:100A2000EC01009721F0A80160E070E033D1CE0125
:100A3000DF91CF911F910F910895CF93DF93823073
:100A4000910510F482E090E0E091AB02F091AC02ED
:100A500020E030E0C0E0D0E0309711F140815181DA
:100A600048175907C0F04817590761F482819381EC
:100A7000209719F09B838A832BC09093AC028093BC
:100A8000AB0226C02115310519F04217530718F49F
:100A90009A01BE01DF01EF010280F381E02DDCCF7E
:100AA0002115310509F1281B390B2430310590F44B
:100AB00012968D919C9113976115710521F0FB01A0
:100AC0009383828304C09093AC028093AB02FD01B8
:100AD000329644C0FD01E20FF31F8193919322509F
:100AE00031092D933C933AC02091A9023091AA027A
:100AF000232B41F420910201309103013093AA028B
:100B00002093A902209100013091010121153105A6
:100B100041F42DB73EB74091040150910501241BCB
:100B2000350BE091A902F091AA02E217F307A0F4B5
:100B30002E1B3F0B2817390778F0AC014E5F5F4F33
:100B40002417350748F04E0F5F1F5093AA024093B9
:100B5000A9028193919302C0E0E0F0E0CF01DF9120
:100B6000CF9108950F931F93CF93DF93009709F4CC
:100B70008CC0FC013297138212820091AB0210915B
:100B8000AC020115110581F420813181820F931F80
:100B90002091A9023091AA022817390779F5F0931C
:100BA000AA02E093A90271C0D80140E050E0AE175C
:100BB000BF0750F412962D913C911397AD0121156A
:100BC000310509F1D901F3CF9D01DA013383228385
:100BD00060817181860F971F8217930769F4EC017A
:100BE00028813981260F371F2E5F3F4F31832083A5
:100BF0008A819B8193838283452B29F4F093AC02F5
:100C0000E093AB0242C01396FC93EE931297ED0172
:100C1000499159919E01240F351FE217F30771F492
:100C200080819181840F951F029611969C938E93DB
:100C30008281938113969C938E931297E0E0F0E06B
:100C4000D80112968D919C911397009719F0F80195
:100C50008C01F6CF8D919C9198012E5F3F4F820FB2
:100C6000931F2091A9023091AA022817390769F42D
:100C7000309729F41092AC021092AB0202C013829A
:100C800012821093AA020093A902DF91CF911F91C3
:100C90000F910895DC0101C06D9341505040E0F781
:060CA0000895F894FFCF57
:060CA6000000AD02200079
:00000001FF
