:1000000049C0000062C0000060C000005EC0000087
:100010005CC000005AC0000058C0000056C000007C
:1000200054C0000052C0000050C000004EC000008C
:100030004CC000004AC0000048C0000046C000009C
:1000400044C0000029C2000041C000003EC00000C2
:100050003CC000003AC0000038C0000036C00000BC
:1000600034C0000032C0000030C000002EC00000CC
:100070002CC000002AC0000028C0000026C00000DC
:1000800024C0000022C0000020C000001EC00000EC
:100090001CC0000011241FBECFEFD8E0DEBFCDBFD3
:1000A00022E0A6E0B1E001C01D92A43CB207E1F756
:1000B00011E0A0E0B1E0EAE0FCE002C005900D92A2
:1000C000A630B107D9F771D29EC59ACF1F920F9271
:1000D0000FB60F9211242F933F934F935F936F931B
:1000E0008F939F93AF93BF93EF93FF93CF93DF9340
:1000F0001F92CDB7DEB78091E00080FF47C090919E
:10010000DE0090FF43C01092ED00EEEEF0E0808143
:10011000898380818F7B808380910B0190910A017C
:10012000981789F18F702BE0829FC0011124FC0188
:10013000E454FE4F20812093F00020812093F200B0
:1001400021812093F3002381AAEFB0E02C93248136
:100150002C9325812C9326812C9327812C93208509
:100160002C9321852C9322852C93FC01E254FE4F85
:1001700080818F7080648093EF0080910B018F5F8E
:1001800080930B017DC0109209017AC081FF78C075
:100190008091DE0081FF74C080E18093ED0080914A
:1001A0000701282F30E090910801291B31092F7792
:1001B0003327203131050CF058C0E82FEF709091B3
:1001C000EF002E2F30E04BE0E49FF0011124E45FBC
:1001D000FE4F9F704281407F942B92839091F2005A
:1001E0004091F0004770907E942B90839091F300A3
:1001F0009183AAEFB0E09C9193839C9194839C910E
:1002000095839C9196839C9197839C9190879C91D8
:1002100091879C9192878F5F8093070140814295DF
:10022000469547705181652F660F660F660F862FC2
:10023000842B952F929596959770892BB1F48BE02E
:10024000829FF001839FF00D1124E45FFE4F8381B4
:10025000833059F498E088E10FB6F894A89580931C
:1002600060000FBE90936000FFCFEEEEF0E0808163
:100270008983898180818F7D808380E88093EF00EE
:100280000F90DF91CF91FF91EF91BF91AF919F912F
:100290008F916F915F914F913F912F910F900FBE72
:1002A0000F901F901895CF93DF93E8EDF0E021E0D9
:1002B00020832EEF2093E2002CE02093E30027E33D
:1002C0002093E4001092E7001092E6001092E900FB
:1002D0001092E8001092EC001092E500CDEED0E014
:1002E0001882AEEEB0E01C9220E128831C9210929E
:1002F000F400282F2295220F207E2093F600969559
:10030000879596958795969587958093F700109297
:10031000F000862F8295880F807E8093F20076957C
:10032000679576956795769567956093F30080E875
:100330008093EF0083E08093DC008093DE0080EB0D
:100340008093DB0082E0808310920601DF91CF91E1
:100350000895CF93DF93FC01ABEDB0E08C918F77E4
:100360008C9380910901811127C01092ED0080814A
:100370008295880F807E8093F2008081918196958E
:10038000879596958795969587958093F300DF01DD
:1003900013969F01255F3F4FCAEFD0E09D91988350
:1003A000A217B307D9F781E08093090182818064A5
:1003B0008093EF0081E03CC020910A01822F90E001
:1003C00030910B01831B91098F779927409779F121
:1003D000A22FAF708BE0A89FD0011124ED01C4546F
:1003E000DE4F8081382F3295330F307E98819F7198
:1003F000932B988391819295990F907E86958695FF
:100400008695892B89838281982F9F708A81807F2E
:10041000892B8A83A154BE4F88E0339601900D92B8
:100420008A95E1F72F5F20930A0181E001C080E007
:10043000EBEDF0E0908190689083DF91CF9108958B
:1004400014BC81E080936E0084B5846084BD0895FF
:1004500090E0FC01EE0FFF1FEE0FFF1FE459FD4F70
:100460001082118212821382FC01E457FD4F21E0B9
:100470002083089524E0829FC0011124FC01E459E7
:10048000FD4F608171818281938128EE33E040E0ED
:1004900050E0E3D1C90108951F920F920FB60F9259
:1004A00011242F933F934F935F936F937F938F9379
:1004B000AF93BF93EF93FF93ACE8B2E0ECE6F2E0CA
:1004C0002CE832E08D91882359F04081518162817E
:1004D0007381505E6F4F7F4F40835183628373837C
:1004E0003496E217F30771F7FF91EF91BF91AF9147
:1004F0008F917F916F915F914F913F912F910F90CD
:100500000FBE0F901F901895E0ECF0E0908195FFE2
:10051000FDCF8093C60081E090E0089589E190E0EE
:100520009093C5008093C40086E08093C200E1EC04
:10053000F0E080818869808360E070E084E892E088
:10054000CAC108958DB1887F8DB984B1887F84B97F
:10055000739A2B9A08950F931F93FB014081518149
:10056000628173818A019B01080F191F211D311DB2
:10057000D901C801689413F8769567955795479502
:100580001694D1F7841B950BA60BB70B689413F840
:10059000B695A795979587951694D1F78083918303
:1005A000A283B3831F910F910895F894CBDFB6DF38
:1005B00047DF60E070E080E090E075DE80E048DFDB
:1005C0007894EFEAF2E085E090E091838083828383
:1005D0000F2EF2EBCF2ED12CF02D772473940F2E0B
:1005E000F4E9EF2EF12CF02D04E810E0EF01612C7E
:1005F000512C0F2E812CF6EA9F2EFEE0AF2EB12C4F
:10060000F02D80E037DF8536910508F486C08091B3
:100610009E0290919F02609198027091990209D177
:1006200070939F0260939E02683C710538F09B01B5
:1006300040E050E0C501B40132D102C0262D352D75
:100640006BEA72E0822F932F86DF8091AB0290914C
:10065000AC029B838C8310929902109298021092A4
:100660009F0210929E0280919C0290919D02609147
:10067000960270919702DDD070939D0260939C0268
:10068000683C710538F09B0140E050E0C501B401C1
:1006900006D102C0262D352D67EA72E0822F932FF6
:1006A0005ADF8091A7029091A8029D838E831092B9
:1006B00097021092960210929D0210929C028091D5
:1006C0009A0290919B026091940270919502B1D030
:1006D00070939B0260939A02683C710538F09B010D
:1006E00040E050E0C501B401DAD002C0262D352D1E
:1006F00063EA72E0822F932F2EDF8091A3028F8313
:10070000109295021092940210929B0210929A02FB
:10071000CE011FDE80E09CDE74CF189B22C080914A
:10072000A20281116FC0F8018081918120919E0207
:1007300030919F02820F931F90939F0280939E029D
:100740001182108280919802909199020196909363
:100750009902809398027092A2028FB1189B2CC0CC
:100760002DC0189908C08091A202882309F44DC0B9
:100770001092A2024AC0789B19C08091A2028111F6
:1007800047C0F7018081918190939D0280939C02E4
:100790001182108280919602909197020196909317
:1007A0009702809396027092A10208C0189906C021
:1007B0008091A202882379F11092A1021C9B18C09B
:1007C0008091A20281112AC0F601808190E090936D
:1007D0009B0280939A0210828091940290919502DC
:1007E000019690939502809394027092A00209CF93
:1007F0001C9907CF8091A202882309F402CF10929E
:10080000A002FFCE189BB4CF0CC07899BACFCECF40
:10081000189BD2CF09C01C99D7CF09C01C9BEFCF22
:10082000F0CE7899F5CFC2CF1C99F8CFE1CF83B144
:10083000E8CEAA1BBB1B51E107C0AA1FBB1FA6170E
:10084000B70710F0A61BB70B881F991F5A95A9F779
:1008500080959095BC01CD010895A1E21A2EAA1BA6
:10086000BB1BFD010DC0AA1FBB1FEE1FFF1FA21760
:10087000B307E407F50720F0A21BB30BE40BF50B5D
:10088000661F771F881F991F1A9469F760957095E6
:10089000809590959B01AC01BD01CF010895052E77
:1008A00097FB16F400940FD057FD05D0D6DF07FC58
:1008B00002D046F408C050954095309521953F4FA1
:1008C0004F4F5F4F089590958095709561957F4F3C
:1008D0008F4F9F4F08950F931F93CF93DF930097F0
:1008E00031F46115710519F480E090E039C08B0195
:1008F000EC016EE070E081E090E037D0FC01892BE4
:1009000099F380E883830115110571F0138702873D
:1009100081E883838091BA029091BB02892B21F4F4
:10092000F093BB02E093BA022097C9F0D187C08749
:100930008381826083838091BC029091BD02892B68
:1009400071F4F093BD02E093BC028091BE029091DD
:10095000BF02892B21F4F093BF02E093BE02CF01C6
:10096000DF91CF911F910F9108950F931F93CF9314
:10097000DF93869F8001879F100D969F100D112495
:10098000C8010DD0EC01009721F0A80160E070E0F3
:1009900033D1CE01DF91CF911F910F910895CF9365
:1009A000DF938230910510F482E090E0E091C20282
:1009B000F091C30220E030E0C0E0D0E0309711F1C8
:1009C0004081518148175907C0F04817590761F411
:1009D00082819381209719F09B838A832BC0909307
:1009E000C3028093C20226C02115310519F04217B7
:1009F000530718F49A01BE01DF01EF010280F38171
:100A0000E02DDCCF2115310509F1281B390B2430ED
:100A1000310590F412968D919C9113976115710593
:100A200021F0FB019383828304C09093C3028093DF
:100A3000C202FD01329644C0FD01E20FF31F819313
:100A40009193225031092D933C933AC02091C002DA
:100A50003091C102232B41F4209102013091030116
:100A60003093C1022093C002209100013091010116
:100A70002115310541F42DB73EB740910401509145
:100A80000501241B350BE091C002F091C102E21771
:100A9000F307A0F42E1B3F0B2817390778F0AC01A1
:100AA0004E5F5F4F2417350748F04E0F5F1F50937E
:100AB000C1024093C0028193919302C0E0E0F0E054
:100AC000CF01DF91CF9108950F931F93CF93DF93C1
:100AD000009709F48CC0FC013297138212820091B6
:100AE000C2021091C3020115110581F420813181E8
:100AF000820F931F2091C0023091C102281739073D
:100B000079F5F093C102E093C00271C0D80140E0D2
:100B100050E0AE17BF0750F412962D913C911397F9
:100B2000AD012115310509F1D901F3CF9D01DA019C
:100B30003383228360817181860F971F8217930709
:100B400069F4EC0128813981260F371F2E5F3F4F52
:100B5000318320838A819B8193838283452B29F46F
:100B6000F093C302E093C20242C01396FC93EE934B
:100B70001297ED01499159919E01240F351FE217FB
:100B8000F30771F480819181840F951F029611966D
:100B90009C938E938281938113969C938E9312974C
:100BA000E0E0F0E0D80112968D919C9113970097A8
:100BB00019F0F8018C01F6CF8D919C9198012E5F70
:100BC0003F4F820F931F2091C0023091C10228171E
:100BD000390769F4309729F41092C3021092C202C7
:100BE00002C0138212821093C1020093C002DF91EF
:100BF000CF911F910F910895DC0101C06D93415079
:0A0C00005040E0F70895F894FFCF8C
:060C0A000000C4022000FE
:00000001FF
