:1000000049C0000065C0000063C0000061C000007E
:100010005FC000005DC000005BC0000059C0000070
:1000200057C0000055C00000B1C3000051C000001F
:100030004FC000004DC000004BC000009DC3000039
:1000400047C0000030C2000044C0000041C00000B2
:100050003FC000003DC000003BC0000039C00000B0
:1000600037C0000035C0000033C0000031C00000C0
:100070002FC000002DC000002BC00000AFC3000047
:1000800027C0000025C0000023C0000021C00000E0
:100090001FC0000011241FBECFEFD0E1DEBFCDBFD7
:1000A00011E0A0E0B1E0EAE3F3E100E00BBF02C041
:1000B00007900D92AC31B107D9F722E0ACE1B1E085
:1000C00001C01D92A03EB207E1F78CD20C949B09AF
:1000D00097CF1F920F920FB60F9211240BB60F926B
:1000E0002F933F934F935F936F938F939F93AF9310
:1000F000BF93EF93FF93CF93DF931F92CDB7DEB7FC
:100100008091E00080FF47C09091DE0090FF43C0E7
:100110001092ED00EEEEF0E08081898380818F7B8C
:1001200080838091210190912001981789F18F702F
:100130002BE0829FC0011124FC01EE52FE4F208172
:100140002093F00020812093F20021812093F3007E
:100150002381AAEFB0E02C9324812C9325812C934A
:1001600026812C9327812C9320852C9321852C93F9
:1001700022852C93FC01EC52FE4F80818F708064AD
:100180008093EF00809121018F5F809321017DC0DA
:1001900010921F017AC081FF78C08091DE0081FF3C
:1001A00074C080E18093ED0080911D01282F30E024
:1001B00090911E01291B31092F77332720313105FA
:1001C0000CF058C0E82FEF709091EF002E2F30E028
:1001D0004BE0E49FF0011124EE5DFE4F9F704281E1
:1001E000407F942B92839091F2004091F0004770F1
:1001F000907E942B90839091F3009183AAEFB0E0CE
:100200009C9193839C9194839C9195839C919683DC
:100210009C9197839C9190879C9191879C919287C8
:100220008F5F80931D0140814295469547705181B3
:10023000652F660F660F660F862F842B952F92957C
:1002400096959770892BB1F48BE0829FF001839F84
:10025000F00D1124EE5DFE4F8381833059F498E058
:1002600088E10FB6F894A895809360000FBE909334
:100270006000FFCFEEEEF0E080818983898180818C
:100280008F7D808380E88093EF000F90DF91CF9186
:10029000FF91EF91BF91AF919F918F916F915F917E
:1002A0004F913F912F910F900BBE0F900FBE0F906B
:1002B0001F901895CF93DF93E8EDF0E021E02083C5
:1002C0002EEF2093E2002CE02093E30027E320931D
:1002D000E4001092E7001092E6001092E9001092FC
:1002E000E8001092EC001092E500CDEED0E018820C
:1002F000AEEEB0E01C9220E128831C921092F40034
:10030000282F2295220F207E2093F6009695879520
:1003100096958795969587958093F7001092F000B3
:10032000862F8295880F807E8093F2007695679560
:1003300076956795769567956093F30080E880934E
:10034000EF0083E08093DC008093DE0080EB8093FD
:10035000DB0082E0808310921C01DF91CF91089531
:10036000CF93DF93FC01ABEDB0E08C918F778C9352
:1003700080911F01811127C01092ED00808182952C
:10038000880F807E8093F200808191819695879579
:1003900096958795969587958093F300DF01139640
:1003A0009F01255F3F4FCAEFD0E09D919883A21730
:1003B000B307D9F781E080931F0182818064809325
:1003C000EF0081E03CC020912001822F90E030912D
:1003D0002101831B91098F779927409779F1A22FEB
:1003E000AF708BE0A89FD0011124ED01CE52DE4FFB
:1003F0008081382F3295330F307E98819F71932BF7
:10040000988391819295990F907E86958695869591
:10041000892B89838281982F9F708A81807F892B85
:100420008A83AB52BE4F88E0339601900D928A9535
:10043000E1F72F5F2093200181E001C080E0EBED28
:10044000F0E0908190689083DF91CF91089514BC83
:1004500081E080936E0084B5846084BD089590E04F
:10046000FC01EE0FFF1FEE0FFF1FEE57FD4F108236
:10047000118212821382FC01EE55FD4F21E0208390
:10048000089524E0829FC0011124FC01EE57FD4F26
:10049000608171818281938128EE33E040E050E0F9
:1004A000E3D2C90108951F920F920FB60F92112443
:1004B0000BB60F922F933F934F935F936F937F935E
:1004C0008F93AF93BF93EF93FF93A2EAB2E0E2E87A
:1004D000F2E022EA32E08D91882359F04081518187
:1004E00062817381505E6F4F7F4F4083518362837F
:1004F00073833496E217F30771F7FF91EF91BF9181
:10050000AF918F917F916F915F914F913F912F911B
:100510000F900BBE0F900FBE0F901F901895E0EC40
:10052000F0E0908195FFFDCF8093C60081E090E0E0
:10053000089589E190E09093C5008093C40086E01F
:100540008093C200E1ECF0E080818869808360E004
:1005500070E08FE892E0AAC208958DB1887F8DB9CE
:1005600084B1887F84B98B9A2B9A08959B01AC0142
:10057000683C71058105910540F06EE077E287E007
:1005800090E072D2DA01C90108952F303742474016
:10059000510528F48FEF9FEFA0E0B0E0089580E0D0
:1005A00090E0DC010895E1E8F0E0808181608083E3
:1005B000EFE6F0E0808181608083E1E9F0E0808116
:1005C00081608083E1E7F0E0808181608083E0EBFF
:1005D000F0E0808185608083E0E7F0E080818160E9
:1005E00080830895F894B9DFA4DF31DF60E070E024
:1005F00080E090E05FDE80E032DFD5DF7894EBECE6
:10060000F2E085E090E0918380838283DD24D394BF
:100610000F2EF6E0EF2EF1E0FF2EF02DEF0102E1BC
:1006200011E080E02EDF8536910508F47CC0F89457
:100630008091BD028F938091BC028F938091BB0209
:100640008F938091BA028F93FF92EF9279D260914B
:10065000BA027091BB028091BC029091BD0213D18D
:100660002FEF3FE340E95FE374D1E1D0DC01CB0140
:10067000AA27BB278093C7029093C802A093C90200
:10068000B093CA029B838C83BF93AF939F938F9346
:100690001F930F9355D21092BA021092BB02109280
:1006A000BC021092BD026091B6027091B7028091B7
:1006B000B8029091B902E7D02FEF3FE340E95FE342
:1006C00048D1B5D0DC01CB01AA27BB278093C30258
:1006D0009093C402A093C502B093C6029D838E83FB
:1006E0006091B2027091B3028091B4029091B50210
:1006F0003DDFAC0160E070E04093BF025093C00268
:100700006093C1027093C2028F83CE0129DE80E024
:10071000A6DE78948DB79EB70C960FB6F8949EBF60
:100720000FBE8DBF7ECF78991AC08091BE02811115
:1007300020C08091BA029091BB02A091BC02B091FE
:10074000BD020196A11DB11D8093BA029093BB0218
:10075000A093BC02B093BD02D092BE0262CF789B40
:1007600060CF8091BE02882309F45BCF1092BE0255
:1007700058CF7899FBCF55CF1F920F920FB60F929B
:1007800011240F900FBE0F901F9018951F920F927B
:100790000FB60F9211248F939F93AF93BF938091C5
:1007A000AA029091AB02A091AC02B091AD0281502F
:1007B0009F4FAF4FBF4F8093AA029093AB02A0937D
:1007C000AC02B093AD021092B200BF91AF919F9175
:1007D0008F910F900FBE0F901F9018951F920F9240
:1007E0000FB60F9211248F939F93AF93BF93809175
:1007F000AE029091AF02A091B002B091B102019708
:10080000AF4FBF4F8093AE029093AF02A093B00260
:10081000B093B1021092950010929400BF91AF91E5
:100820009F918F910F900FBE0F901F90189570D0D1
:1008300088F09F5790F0B92F9927B751A0F0D1F0C9
:10084000660F771F881F991F1AF0BA95C9F712C053
:10085000B13081F077D0B1E0089574C0672F782F60
:100860008827B85F39F0B93FCCF3869577956795BF
:10087000B395D9F73EF490958095709561957F4F2B
:100880008F4F9F4F0895E89409C097FB3EF49095D1
:100890008095709561957F4F8F4F9F4F9923A9F059
:1008A000F92F96E9BB279395F695879577956795E8
:1008B000B795F111F8CFFAF4BB0F11F460FF1BC02C
:1008C0006F5F7F4F8F4F9F4F16C0882311F096E9BF
:1008D00011C0772321F09EE8872F762F05C066236D
:1008E00071F096E8862F70E060E02AF09A95660F26
:1008F000771F881FDAF7880F9695879597F90895DF
:1009000057FD9058440F551F59F05F3F71F04795C0
:10091000880F97FB991F61F09F3F79F087950895A5
:10092000121613061406551FF2CF4695F1DF08C0C4
:10093000161617061806991FF1CF869571056105E1
:1009400008940895E894BB2766277727CB0197F989
:1009500008950BD078C069D028F06ED018F0952398
:1009600009F05AC05FC01124EECFCADFA0F3959FF3
:10097000D1F3950F50E0551F629FF001729FBB2786
:10098000F00DB11D639FAA27F00DB11DAA1F649F32
:100990006627B00DA11D661F829F2227B00DA11DE5
:1009A000621F739FB00DA11D621F839FA00D611D6B
:1009B000221F749F3327A00D611D231F849F600D8C
:1009C000211D822F762F6A2F11249F5750408AF0C5
:1009D000E1F088234AF0EE0FFF1FBB1F661F771F51
:1009E000881F91505040A9F79E3F510570F014C0E8
:1009F000AACF5F3FECF3983EDCF386957795679539
:100A0000B795F795E7959F5FC1F7FE2B880F911D6E
:100A10009695879597F9089597F99F6780E870E014
:100A200060E008959FEF80EC089500240A94161664
:100A3000170618060906089500240A9412161306CC
:100A4000140605060895092E0394000C11F488235A
:100A500052F0BB0F40F4BF2B11F460FF04C06F5F76
:100A60007F4F8F4F9F4F0895A1E21A2EAA1BBB1BE9
:100A7000FD010DC0AA1FBB1FEE1FFF1FA217B3076A
:100A8000E407F50720F0A21BB30BE40BF50B661F80
:100A9000771F881F991F1A9469F760957095809544
:100AA00090959B01AC01BD01CF0108950F931F9359
:100AB000CF93DF93009731F46115710519F480E04D
:100AC00090E039C08B01EC016EE070E081E090E0D5
:100AD00038D2FC01892B99F380E883830115110535
:100AE00071F01387028781E883838091D602909109
:100AF000D702892B21F4F093D702E093D6022097F6
:100B0000C9F0D187C0878381826083838091D802B6
:100B10009091D902892B71F4F093D902E093D80215
:100B20008091DA029091DB02892B21F4F093DB02B1
:100B3000E093DA02CF01DF91CF911F910F910895D9
:100B4000CF93DF93CDB7DEB7AE014B5F5F4FFA01B6
:100B500061917191AF018091D8029091D90203D037
:100B6000DF91CF9108952F923F924F925F926F92B3
:100B70007F928F929F92AF92BF92CF92DF92EF922D
:100B8000FF920F931F93CF93DF93CDB7DEB72C97D0
:100B90000FB6F894DEBF0FBECDBF7C016B018A019A
:100BA000FC0117821682838181FFB0C1CE010196BC
:100BB0004C01F7019381F60193FD859193FF81919B
:100BC0006F01882309F49EC1853239F493FD859124
:100BD00093FF81916F01853221F4B70190E015D325
:100BE000E8CF512C312C20E02032A0F48B3269F078
:100BF00030F4803259F0833269F420612CC08D3298
:100C000039F0803339F4216026C02260246023C08B
:100C1000286021C027FD27C030ED380F3A3078F426
:100C200026FF06C0FAE05F9E300D1124532E13C03C
:100C30008AE0389E300D1124332E20620CC08E3293
:100C400021F426FD5FC1206406C08C3611F42068B3
:100C500002C0883641F4F60193FD859193FF81919E
:100C60006F018111C1CF982F9F7D9554933028F447
:100C70000C5F1F4FFFE3F9830DC0833631F08337DC
:100C800071F0833509F057C021C0F8018081898354
:100C90000E5F1F4F44244394512C540114C038015B
:100CA000F2E06F0E711CF801A080B18026FF03C036
:100CB000652D70E002C06FEF7FEFC5012C879AD2DF
:100CC0002C0183012C852F77222E16C03801F2E0EB
:100CD0006F0E711CF801A080B18026FF03C0652D46
:100CE00070E002C06FEF7FEFC5012C8771D22C013D
:100CF0002C852068222E830123FC19C0832D90E0CF
:100D000048165906A0F4B70180E290E07ED23A94EA
:100D1000F5CFF50127FC859127FE81915F01B70191
:100D200090E073D231103A94F1E04F1A5108411417
:100D3000510479F7DEC0843611F0893631F5F801B7
:100D400027FF07C060817181828193810C5F1F4FF3
:100D500008C060817181072E000C880B990B0E5F13
:100D60001F4F2F76722E97FF09C090958095709532
:100D700061957F4F8F4F9F4F2068722E2AE030E0A1
:100D8000A4017BD2A82EA81843C0853729F42F7E52
:100D9000B22E2AE030E025C0F22FF97FBF2E8F3629
:100DA000C1F018F4883579F0ADC0803719F0883774
:100DB00021F0A8C02F2F2061B22EB4FE0DC08B2DC4
:100DC0008460B82E09C024FF0AC09F2F9660B92EF8
:100DD00006C028E030E005C020E130E002C020E19C
:100DE00032E0F801B7FE07C0608171818281938192
:100DF0000C5F1F4F06C06081718180E090E00E5F44
:100E00001F4FA4013AD2A82EA818FB2DFF777F2EE2
:100E100076FE0BC0372D3E7FA51450F474FE0AC039
:100E200072FC08C0372D3E7E05C0BA2C372D03C09A
:100E3000BA2C01C0B52C34FF0DC0FE01EA0DF11D26
:100E40008081803311F4397E09C032FF06C0B3942B
:100E5000B39404C0832F867809F0B39433FD12C095
:100E600030FF06C05A2CB31418F4530C5B18B32C83
:100E7000B31460F4B70180E290E03C87C6D1B3942C
:100E80003C85F6CFB31410F43B1801C0312C34FF6D
:100E900011C0B70180E390E03C87B7D13C8532FFB9
:100EA00016C031FD03C088E790E002C088E590E0FD
:100EB000B7010CC0832F867851F031FF02C08BE25E
:100EC00001C080E237FD8DE2B70190E09ED1A5140C
:100ED00030F4B70180E390E098D15A94F8CFAA9407
:100EE000F401EA0DF11D8081B70190E08ED1A110CF
:100EF000F6CF332009F45DCEB70180E290E085D1D2
:100F00003A94F7CFF7018681978102C08FEF9FEF68
:100F10002C960FB6F894DEBF0FBECDBFDF91CF91F8
:100F20001F910F91FF90EF90DF90CF90BF90AF9007
:100F30009F908F907F906F905F904F903F902F90F9
:100F400008950F931F93CF93DF93869F8001879F10
:100F5000100D969F100D1124C8010DD0EC010097C3
:100F600021F0A80160E070E03ED1CE01DF91CF9189
:100F70001F910F910895CF93DF938230910510F464
:100F800082E090E0E091DE02F091DF0220E030E0CC
:100F9000C0E0D0E0309711F14081518148175907E6
:100FA000C0F04817590761F482819381209719F0A6
:100FB0009B838A832BC09093DF028093DE0226C03E
:100FC0002115310519F04217530718F49A01BE0193
:100FD000DF01EF010280F381E02DDCCF2115310527
:100FE00009F1281B390B2430310590F412968D91AC
:100FF0009C9113976115710521F0FB019383828306
:1010000004C09093DF028093DE02FD01329644C05B
:10101000FD01E20FF31F81939193225031092D932B
:101020003C933AC02091DC023091DD02232B41F445
:1010300020910201309103013093DD022093DC0204
:1010400020910001309101012115310541F42DB7A6
:101050003EB74091040150910501241B350BE091EE
:10106000DC02F091DD02E217F307A0F42E1B3F0B28
:101070002817390778F0AC014E5F5F4F241735070A
:1010800048F04E0F5F1F5093DD024093DC028193C6
:10109000919302C0E0E0F0E0CF01DF91CF9108959D
:1010A0000F931F93CF93DF93009709F48CC0FC013B
:1010B0003297138212820091DE021091DF02011535
:1010C000110581F420813181820F931F2091DC0270
:1010D0003091DD022817390779F5F093DD02E093AE
:1010E000DC0271C0D80140E050E0AE17BF0750F4F9
:1010F00012962D913C911397AD012115310509F1FF
:10110000D901F3CF9D01DA0133832283608171819C
:10111000860F971F8217930769F4EC0128813981A4
:10112000260F371F2E5F3F4F318320838A819B819B
:1011300093838283452B29F4F093DF02E093DE0250
:1011400042C01396FC93EE931297ED014991599189
:101150009E01240F351FE217F30771F480819181FE
:10116000840F951F029611969C938E938281938192
:1011700013969C938E931297E0E0F0E0D8011296BC
:101180008D919C911397009719F0F8018C01F6CF7F
:101190008D919C9198012E5F3F4F820F931F20915C
:1011A000DC023091DD022817390769F4309729F401
:1011B0001092DF021092DE0202C01382128210939C
:1011C000DD020093DC02DF91CF911F910F91089512
:1011D000FC010590615070400110D8F78095909502
:1011E0008E0F9F1F0895DC0101C06D934150504048
:1011F000E0F70895FC016150704001900110D8F7AC
:10120000809590958E0F9F1F08950F931F93CF93F6
:10121000DF93FB01238121FD03C08FEF9FEF28C0E7
:1012200022FF16C04681578124813581421753071A
:1012300044F4A081B1819D012F5F3F4F3183208312
:101240008C93268137812F5F3F4F3783268310C0D1
:10125000EB01092F182F0084F185E02D0995892BCA
:10126000E1F68E819F8101969F838E83812F902F3F
:10127000DF91CF911F910F910895FA01AA2728308D
:1012800051F1203181F1E8946F936E7F6E5F7F4F53
:101290008F4F9F4FAF4FB1E03ED0B4E03CD0670FCF
:1012A000781F891F9A1FA11D680F791F8A1F911D22
:1012B000A11D6A0F711D811D911DA11D20D009F472
:1012C00068943F912AE0269F11243019305D3193B4
:1012D000DEF6CF010895462F4770405D4193B3E09D
:1012E0000FD0C9F7F6CF462F4F70405D4A3318F044
:1012F000495D31FD4052419302D0A9F7EACFB4E0F5
:10130000A6959795879577956795BA95C9F70097AC
:101310006105710508959B01AC010A2E069457954D
:10132000479537952795BA95C9F7620F731F841FA4
:0A133000951FA01D0895F894FFCF4B
:10133A000000E0022000436F756E74733A20257531
:0C134A002C0052504D3A2025750A00007E
:00000001FF
