S0190000456E636F646572526561646572323130332E7372656332
S113000049C0000065C0000063C0000061C000007A
S11300105FC000005DC000005BC0000059C000006C
S113002057C0000055C0000053C0000051C000007C
S11300301EC300004DC000004BC0000049C00000BA
S113004047C0000045C0000044C0000041C000009B
S11300503FC000003DC000003BC0000039C00000AC
S113006037C0000035C0000033C0000031C00000BC
S11300702FC000002DC000002BC0000029C00000CC
S113008027C0000025C0000023C0000021C00000DC
S11300901FC0000011241FBECFEFD0E1DEBFCDBFD3
S11300A011E0A0E0B1E0E4E5F1E100E00BBF02C043
S11300B007900D92AC32B107D9F722E0ACE2B1E07F
S11300C001C01D92A83AB207E1F7FDD10C94A8082B
S11300D097CF1F920F920FB60F9211240BB60F9267
S11300E02F933F934F935F936F938F939F93AF930C
S11300F0BF93EF93FF93CF93DF931F92CDB7DEB7F8
S11301008091E00080FF47C09091DE0090FF43C0E3
S11301101092ED00EEEEF0E08081898380818F7B88
S113012080838091310190913001981789F18F700B
S11301302BE0829FC0011124FC01EE51FE4F20816F
S11301402093F00020812093F20021812093F3007A
S11301502381AAEFB0E02C9324812C9325812C9346
S113016026812C9327812C9320852C9321852C93F5
S113017022852C93FC01EC51FE4F80818F708064AA
S11301808093EF00809131018F5F809331017DC0B6
S113019010922F017AC081FF78C08091DE0081FF28
S11301A074C080E18093ED0080912D01282F30E010
S11301B090912E01291B31092F77332720313105E6
S11301C00CF058C0E82FEF709091EF002E2F30E024
S11301D04BE0E49FF0011124EE5CFE4F9F704281DE
S11301E0407F942B92839091F2004091F0004770ED
S11301F0907E942B90839091F3009183AAEFB0E0CA
S11302009C9193839C9194839C9195839C919683D8
S11302109C9197839C9190879C9191879C919287C4
S11302208F5F80932D01408142954695477051819F
S1130230652F660F660F660F862F842B952F929578
S113024096959770892BB1F48BE0829FF001839F80
S1130250F00D1124EE5CFE4F8381833059F498E055
S113026088E10FB6F894A895809360000FBE909330
S11302706000FFCFEEEEF0E0808189838981808188
S11302808F7D808380E88093EF000F90DF91CF9182
S1130290FF91EF91BF91AF919F918F916F915F917A
S11302A04F913F912F910F900BBE0F900FBE0F9067
S11302B01F901895CF93DF93E8EDF0E021E02083C1
S11302C02EEF2093E2002CE02093E30027E3209319
S11302D0E4001092E7001092E6001092E9001092F8
S11302E0E8001092EC001092E500CDEED0E0188208
S11302F0AEEEB0E01C9220E128831C921092F40030
S1130300282F2295220F207E2093F600969587951C
S113031096958795969587958093F7001092F000AF
S1130320862F8295880F807E8093F200769567955C
S113033076956795769567956093F30080E880934A
S1130340EF0083E08093DC008093DE0080EB8093F9
S1130350DB0082E0808310922C01DF91CF9108951D
S1130360CF93DF93FC01ABEDB0E08C918F778C934E
S113037080912F01811127C01092ED008081829518
S1130380880F807E8093F200808191819695879575
S113039096958795969587958093F300DF0113963C
S11303A09F01255F3F4FCAEFD0E09D919883A2172C
S11303B0B307D9F781E080932F0182818064809311
S11303C0EF0081E03CC020913001822F90E0309119
S11303D03101831B91098F779927409779F1A22FD7
S11303E0AF708BE0A89FD0011124ED01CE51DE4FF8
S11303F08081382F3295330F307E98819F71932BF3
S1130400988391819295990F907E8695869586958D
S1130410892B89838281982F9F708A81807F892B81
S11304208A83AB51BE4F88E0339601900D928A9532
S1130430E1F72F5F2093300181E001C080E0EBED14
S1130440F0E0908190689083DF91CF910895E0EC83
S1130450F0E0908195FFFDCF8093C60081E090E0AD
S1130460089589E190E09093C5008093C40086E0EC
S11304708093C200E1ECF0E080818869808360E0D1
S113048070E087E292E01FC2089580B3817F80BB51
S113049084B1827E84B9889A289A0895E1E8F0E0CC
S11304A0808183608083EFE6F0E0808182608083D6
S11304B084ED90E3909389008093880010928500E6
S11304C0109284000895CF93DF93CDB7DEB72797BA
S11304D00FB6F894DEBF0FBECDBFF894D6DFC1DFF0
S11304E0DDDF60E070E080E090E0E4DE7894E2E953
S11304F0F2E085E090E09183808386E08283412C62
S1130500512C612C212C1D82E12CF12C1B821C828C
S113051000E010E019821A821F821E82712C6F0182
S11305200F2EF4E88F2E912CF02D0F2EF6E0AF2E27
S1130530F1E0BF2EF02D3324339480919D0281305D
S113054009F043C010929D0273942E813F81B9013A
S113055080E090E0C7D020E030E046E95FE328D1B6
S113056095D069837A83D60113967C931397149656
S11305706C93B80180E090E0B5D020E030E046E92B
S11305805FE316D183D06B837C83F6017583668326
S1130590B70180E090E0A6D020E030E046E95FE3D8
S11305A007D174D0262E7D83D60117967C93179796
S11305B018966C93C601D4DEF40111821082E12CEA
S11305C0F12C00E010E01E821F82FAE07F1224C0AA
S11305D0F8942A812F9339813F93BF92AF92BDD172
S11305E08C818F939B819F93A1E1B1E0BF93AF93E3
S11305F0B4D1FD81FF932F92ACE1B1E0BF93AF93EF
S1130600ACD1D40111961C921E9278940FB6F89432
S1130610DEBF0FBECDBF712C7B9B0CC061100AC026
S1130620F8942E813F812F5F3F4F3F832E83789430
S1130630632C02C07B9B612C1B9B08C0511006C01D
S1130640F8940F5F1F4F7894532C02C01B9B512CBE
S11306501C9B09C0411007C0F8943FEFE31AF30A4A
S11306607894432C6ACF1C9968CF412C66CF1F9293
S11306700F920FB60F9211248F9381E080939D0205
S11306808F910F900FBE0F901F90189570D088F027
S11306909F5790F0B92F9927B751A0F0D1F0660F6A
S11306A0771F881F991F1AF0BA95C9F712C0B13085
S11306B081F077D0B1E0089574C0672F782F882730
S11306C0B85F39F0B93FCCF3869577956795B395C4
S11306D0D9F73EF490958095709561957F4F8F4F33
S11306E09F4F0895E89409C097FB3EF49095809538
S11306F0709561957F4F8F4F9F4F9923A9F0F92FE4
S113070096E9BB279395F695879577956795B79561
S1130710F111F8CFFAF4BB0F11F460FF1BC06F5F47
S11307207F4F8F4F9F4F16C0882311F096E911C059
S1130730772321F09EE8872F762F05C0662371F07A
S113074096E8862F70E060E02AF09A95660F771F8E
S1130750881FDAF7880F9695879597F9089557FDBE
S11307609058440F551F59F05F3F71F04795880F1B
S113077097FB991F61F09F3F79F0879508951216B2
S113078013061406551FF2CF4695F1DF08C016165E
S113079017061806991FF1CF86957105610508940F
S11307A00895E894BB2766277727CB0197F9089526
S11307B00BD078C069D028F06ED018F0952309F0DA
S11307C05AC05FC01124EECFCADFA0F3959FD1F3C6
S11307D0950F50E0551F629FF001729FBB27F00DEB
S11307E0B11D639FAA27F00DB11DAA1F649F662740
S11307F0B00DA11D661F829F2227B00DA11D621F8F
S1130800739FB00DA11D621F839FA00D611D221F48
S1130810749F3327A00D611D231F849F600D211D2C
S1130820822F762F6A2F11249F5750408AF0E1F0CF
S113083088234AF0EE0FFF1FBB1F661F771F881F18
S113084091505040A9F79E3F510570F014C0AACFB3
S11308505F3FECF3983EDCF3869577956795B79503
S1130860F795E7959F5FC1F7FE2B880F911D96952D
S1130870879597F9089597F99F6780E870E060E09D
S113088008959FEF80EC089500240A941616170625
S113089018060906089500240A941216130614066D
S11308A005060895092E0394000C11F4882352F0D0
S11308B0BB0F40F4BF2B11F460FF04C06F5F7F4F88
S11308C08F4F9F4F08950F931F93CF93DF930097FC
S11308D031F46115710519F480E090E039C08B01A1
S11308E0EC016EE070E081E090E038D2FC01892BED
S11308F099F380E883830115110571F0138702874A
S113090081E8838380919E0290919F02892B21F438
S1130910F0939F02E0939E022097C9F0D187C0878D
S11309208381826083838091A0029091A102892BAC
S113093071F4F093A102E093A0028091A20290913D
S1130940A302892B21F4F093A302E093A202CF0126
S1130950DF91CF911F910F910895CF93DF93CDB77E
S1130960DEB7AE014B5F5F4FFA0161917191AF0148
S11309708091A0029091A10203D0DF91CF910895BC
S11309802F923F924F925F926F927F928F929F929B
S1130990AF92BF92CF92DF92EF92FF920F931F9389
S11309A0CF93DF93CDB7DEB72C970FB6F894DEBFA5
S11309B00FBECDBF7C016B018A01FC011782168238
S11309C0838181FFB0C1CE0101964C01F70193816F
S11309D0F60193FD859193FF81916F01882309F4BA
S11309E09EC1853239F493FD859193FF81916F0106
S11309F0853221F4B70190E015D3E8CF512C312C86
S1130A0020E02032A0F48B3269F030F4803259F0C7
S1130A10833269F420612CC08D3239F0803339F48B
S1130A20216026C02260246023C0286021C027FDE5
S1130A3027C030ED380F3A3078F426FF06C0FAE0CC
S1130A405F9E300D1124532E13C08AE0389E300D62
S1130A501124332E20620CC08E3221F426FD5FC196
S1130A60206406C08C3611F4206802C0883641F434
S1130A70F60193FD859193FF81916F018111C1CF9F
S1130A80982F9F7D9554933028F40C5F1F4FFFE3FC
S1130A90F9830DC0833631F0833771F0833509F063
S1130AA057C021C0F801808189830E5F1F4F442401
S1130AB04394512C540114C03801F2E06F0E711CA0
S1130AC0F801A080B18026FF03C0652D70E002C04C
S1130AD06FEF7FEFC5012C879AD22C0183012C85FF
S1130AE02F77222E16C03801F2E06F0E711CF80128
S1130AF0A080B18026FF03C0652D70E002C06FEFB7
S1130B007FEFC5012C8771D22C012C852068222E01
S1130B10830123FC19C0832D90E048165906A0F4E4
S1130B20B70180E290E07ED23A94F5CFF50127FC3C
S1130B30859127FE81915F01B70190E073D2311056
S1130B403A94F1E04F1A51084114510479F7DEC088
S1130B50843611F0893631F5F80127FF07C060812A
S1130B607181828193810C5F1F4F08C06081718104
S1130B70072E000C880B990B0E5F1F4F2F76722ED9
S1130B8097FF09C090958095709561957F4F8F4F21
S1130B909F4F2068722E2AE030E0A4017BD2A82E59
S1130BA0A81843C0853729F42F7EB22E2AE030E0FE
S1130BB025C0F22FF97FBF2E8F36C1F018F4883587
S1130BC079F0ADC0803719F0883721F0A8C02F2FF5
S1130BD02061B22EB4FE0DC08B2D8460B82E09C0E6
S1130BE024FF0AC09F2F9660B92E06C028E030E08B
S1130BF005C020E130E002C020E132E0F801B7FE98
S1130C0007C060817181828193810C5F1F4F06C090
S1130C106081718180E090E00E5F1F4FA4013AD2A1
S1130C20A82EA818FB2DFF777F2E76FE0BC0372D3C
S1130C303E7FA51450F474FE0AC072FC08C0372D20
S1130C403E7E05C0BA2C372D03C0BA2C01C0B52C8A
S1130C5034FF0DC0FE01EA0DF11D8081803311F4D3
S1130C60397E09C032FF06C0B394B39404C0832F05
S1130C70867809F0B39433FD12C030FF06C05A2CB5
S1130C80B31418F4530C5B18B32CB31460F4B70109
S1130C9080E290E03C87C6D1B3943C85F6CFB31490
S1130CA010F43B1801C0312C34FF11C0B70180E3AC
S1130CB090E03C87B7D13C8532FF16C031FD03C0BC
S1130CC088E790E002C088E590E0B7010CC0832F6C
S1130CD0867851F031FF02C08BE201C080E237FD1B
S1130CE08DE2B70190E09ED1A51430F4B70180E302
S1130CF090E098D15A94F8CFAA94F401EA0DF11D2A
S1130D008081B70190E08ED1A110F6CF332009F491
S1130D105DCEB70180E290E085D13A94F7CFF70138
S1130D208681978102C08FEF9FEF2C960FB6F894BF
S1130D30DEBF0FBECDBFDF91CF911F910F91FF900A
S1130D40EF90DF90CF90BF90AF909F908F907F9067
S1130D506F905F904F903F902F9008950F931F9343
S1130D60CF93DF93869F8001879F100D969F100D70
S1130D701124C8010DD0EC01009721F0A80160E016
S1130D8070E03ED1CE01DF91CF911F910F91089574
S1130D90CF93DF938230910510F482E090E0E091EC
S1130DA0A602F091A70220E030E0C0E0D0E0309746
S1130DB011F14081518148175907C0F0481759076C
S1130DC061F482819381209719F09B838A832BC0DD
S1130DD09093A7028093A60226C02115310519F02D
S1130DE04217530718F49A01BE01DF01EF01028094
S1130DF0F381E02DDCCF2115310509F1281B390BD6
S1130E002430310590F412968D919C9113976115BD
S1130E10710521F0FB019383828304C09093A702A0
S1130E208093A602FD01329644C0FD01E20FF31F38
S1130E3081939193225031092D933C933AC0209190
S1130E40A4023091A502232B41F420910201309198
S1130E5003013093A5022093A40220910001309154
S1130E6001012115310541F42DB73EB7409104012C
S1130E7050910501241B350BE091A402F091A502C9
S1130E80E217F307A0F42E1B3F0B2817390778F05D
S1130E90AC014E5F5F4F2417350748F04E0F5F1FBC
S1130EA05093A5024093A4028193919302C0E0E081
S1130EB0F0E0CF01DF91CF9108950F931F93CF936B
S1130EC0DF93009709F48CC0FC01329713821282DD
S1130ED00091A6021091A7020115110581F4208149
S1130EE03181820F931F2091A4023091A50228170B
S1130EF0390779F5F093A502E093A40271C0D801F3
S1130F0040E050E0AE17BF0750F412962D913C918B
S1130F101397AD012115310509F1D901F3CF9D01D5
S1130F20DA013383228360817181860F971F8217D0
S1130F30930769F4EC0128813981260F371F2E5F4E
S1130F403F4F318320838A819B8193838283452B06
S1130F5029F4F093A702E093A60242C01396FC93EF
S1130F60EE931297ED01499159919E01240F351F7B
S1130F70E217F30771F480819181840F951F029623
S1130F8011969C938E938281938113969C938E9356
S1130F901297E0E0F0E0D80112968D919C9113979E
S1130FA0009719F0F8018C01F6CF8D919C9198016E
S1130FB02E5F3F4F820F931F2091A4023091A50210
S1130FC02817390769F4309729F41092A702109270
S1130FD0A60202C0138212821093A5020093A402F7
S1130FE0DF91CF911F910F910895FC0105906150FD
S1130FF070400110D8F7809590958E0F9F1F08952B
S1131000DC0101C06D9341505040E0F70895FC01AC
S11310106150704001900110D8F7809590958E0F23
S11310209F1F08950F931F93CF93DF93FB01238199
S113103021FD03C08FEF9FEF28C022FF16C0468119
S11310405781248135814217530744F4A081B1812B
S11310509D012F5F3F4F318320838C9326813781FD
S11310602F5F3F4F3783268310C0EB01092F182FC2
S11310700084F185E02D0995892BE1F68E819F810D
S113108001969F838E83812F902FDF91CF911F91A3
S11310900F910895FA01AA27283051F1203181F1E6
S11310A0E8946F936E7F6E5F7F4F8F4F9F4FAF4F6C
S11310B0B1E03ED0B4E03CD0670F781F891F9A1F7F
S11310C0A11D680F791F8A1F911DA11D6A0F711D33
S11310D0811D911DA11D20D009F468943F912AE03F
S11310E0269F11243019305D3193DEF6CF01089527
S11310F0462F4770405D4193B3E00FD0C9F7F6CF58
S1131100462F4F70405D4A3318F0495D31FD40521F
S1131110419302D0A9F7EACFB4E0A69597958795B5
S113112077956795BA95C9F7009761057105089594
S11311309B01AC010A2E0694579547953795279540
S1131140BA95C9F7620F731F841F951FA01D0895D8
S1071150F894FFCF3D
S11311540000A802200052504D20313A2025750A7F
S11311640052504D20323A2025750A0052504D2029
S10F1174576865656C3A2025750A000078
S9030000FC
